{
  "_format": "hh-sol-artifact-1",
  "contractName": "DPN",
  "sourceName": "contracts/DPN.sol",
  "abi": [
    {
      "inputs": [],
      "name": "EnforcedPause",
      "type": "error"
    },
    {
      "inputs": [],
      "name": "ExpectedPause",
      "type": "error"
    },
    {
      "inputs": [],
      "name": "InvalidInitialization",
      "type": "error"
    },
    {
      "inputs": [],
      "name": "NotInitializing",
      "type": "error"
    },
    {
      "inputs": [
        {
          "internalType": "address",
          "name": "owner",
          "type": "address"
        }
      ],
      "name": "OwnableInvalidOwner",
      "type": "error"
    },
    {
      "inputs": [
        {
          "internalType": "address",
          "name": "account",
          "type": "address"
        }
      ],
      "name": "OwnableUnauthorizedAccount",
      "type": "error"
    },
    {
      "anonymous": false,
      "inputs": [
        {
          "indexed": true,
          "internalType": "address",
          "name": "to",
          "type": "address"
        },
        {
          "indexed": false,
          "internalType": "uint256",
          "name": "amount",
          "type": "uint256"
        }
      ],
      "name": "Deposit",
      "type": "event"
    },
    {
      "anonymous": false,
      "inputs": [
        {
          "indexed": false,
          "internalType": "uint64",
          "name": "version",
          "type": "uint64"
        }
      ],
      "name": "Initialized",
      "type": "event"
    },
    {
      "anonymous": false,
      "inputs": [
        {
          "indexed": true,
          "internalType": "address",
          "name": "previousOwner",
          "type": "address"
        },
        {
          "indexed": true,
          "internalType": "address",
          "name": "newOwner",
          "type": "address"
        }
      ],
      "name": "OwnershipTransferred",
      "type": "event"
    },
    {
      "anonymous": false,
      "inputs": [
        {
          "indexed": false,
          "internalType": "address",
          "name": "account",
          "type": "address"
        }
      ],
      "name": "Paused",
      "type": "event"
    },
    {
      "anonymous": false,
      "inputs": [
        {
          "indexed": false,
          "internalType": "address",
          "name": "account",
          "type": "address"
        }
      ],
      "name": "Unpaused",
      "type": "event"
    },
    {
      "anonymous": false,
      "inputs": [
        {
          "indexed": true,
          "internalType": "address",
          "name": "from",
          "type": "address"
        },
        {
          "indexed": true,
          "internalType": "address",
          "name": "to",
          "type": "address"
        },
        {
          "indexed": false,
          "internalType": "uint256",
          "name": "withdrawalAmount",
          "type": "uint256"
        }
      ],
      "name": "WithdrawalCompleted",
      "type": "event"
    },
    {
      "inputs": [
        {
          "internalType": "address",
          "name": "_to",
          "type": "address"
        }
      ],
      "name": "deposit",
      "outputs": [],
      "stateMutability": "payable",
      "type": "function"
    },
    {
      "inputs": [
        {
          "internalType": "address",
          "name": "_from",
          "type": "address"
        },
        {
          "internalType": "address",
          "name": "_to",
          "type": "address"
        },
        {
          "internalType": "uint256",
          "name": "_withdrawalAmount",
          "type": "uint256"
        }
      ],
      "name": "executeWithdrawal",
      "outputs": [],
      "stateMutability": "nonpayable",
      "type": "function"
    },
    {
      "inputs": [
        {
          "internalType": "address",
          "name": "initialOwner",
          "type": "address"
        }
      ],
      "name": "initialize",
      "outputs": [],
      "stateMutability": "nonpayable",
      "type": "function"
    },
    {
      "inputs": [
        {
          "internalType": "address",
          "name": "account",
          "type": "address"
        }
      ],
      "name": "isMasternode",
      "outputs": [
        {
          "internalType": "bool",
          "name": "",
          "type": "bool"
        }
      ],
      "stateMutability": "view",
      "type": "function"
    },
    {
      "inputs": [],
      "name": "masternodes",
      "outputs": [
        {
          "internalType": "address[]",
          "name": "",
          "type": "address[]"
        }
      ],
      "stateMutability": "view",
      "type": "function"
    },
    {
      "inputs": [],
      "name": "owner",
      "outputs": [
        {
          "internalType": "address",
          "name": "",
          "type": "address"
        }
      ],
      "stateMutability": "view",
      "type": "function"
    },
    {
      "inputs": [],
      "name": "pause",
      "outputs": [],
      "stateMutability": "nonpayable",
      "type": "function"
    },
    {
      "inputs": [],
      "name": "paused",
      "outputs": [
        {
          "internalType": "bool",
          "name": "",
          "type": "bool"
        }
      ],
      "stateMutability": "view",
      "type": "function"
    },
    {
      "inputs": [],
      "name": "renounceOwnership",
      "outputs": [],
      "stateMutability": "nonpayable",
      "type": "function"
    },
    {
      "inputs": [
        {
          "internalType": "address[]",
          "name": "addresses",
          "type": "address[]"
        }
      ],
      "name": "setMasternodes",
      "outputs": [],
      "stateMutability": "nonpayable",
      "type": "function"
    },
    {
      "inputs": [
        {
          "internalType": "address",
          "name": "newOwner",
          "type": "address"
        }
      ],
      "name": "transferOwnership",
      "outputs": [],
      "stateMutability": "nonpayable",
      "type": "function"
    },
    {
      "inputs": [],
      "name": "unpause",
      "outputs": [],
      "stateMutability": "nonpayable",
      "type": "function"
    }
  ],
  "bytecode": "0x608060405234801561001057600080fd5b50610b87806100206000396000f3fe6080604052600436106100a75760003560e01c8063c4d66de811610064578063c4d66de81461018a578063d82901e0146101aa578063e8782fc1146101ca578063ee2b73f6146101ea578063f2fde38b1461020c578063f340fa011461022c57600080fd5b8063387277f2146100ac5780633f4ba83a146100ce5780635c975abb146100e3578063715018a6146101195780638456cb591461012e5780638da5cb5b14610143575b600080fd5b3480156100b857600080fd5b506100cc6100c7366004610958565b61023f565b005b3480156100da57600080fd5b506100cc610362565b3480156100ef57600080fd5b50600080516020610b328339815191525460ff165b60405190151581526020015b60405180910390f35b34801561012557600080fd5b506100cc610374565b34801561013a57600080fd5b506100cc610386565b34801561014f57600080fd5b507f9016d09d72d40fdae2fd8ceac6b6234c7706214fd39c1cd1e609a0528c199300546040516001600160a01b039091168152602001610110565b34801561019657600080fd5b506100cc6101a5366004610994565b610396565b3480156101b657600080fd5b506100cc6101c53660046109cc565b6104ae565b3480156101d657600080fd5b506101046101e5366004610994565b61057c565b3480156101f657600080fd5b506101ff6105e5565b6040516101109190610a91565b34801561021857600080fd5b506100cc610227366004610994565b610647565b6100cc61023a366004610994565b610685565b6102483361057c565b61028c5760405162461bcd60e51b815260206004820152601060248201526f4e6f742061206d61737465726e6f646560801b60448201526064015b60405180910390fd5b6102946106d3565b8047116102d95760405162461bcd60e51b8152602060048201526013602482015272455843454544535f44504e5f42414c414e434560681b6044820152606401610283565b6040516001600160a01b0383169082156108fc029083906000818181858888f1935050505015801561030f573d6000803e3d6000fd5b50816001600160a01b0316836001600160a01b03167fb00382203b46c3b6ad0a2d7af0268e334bd9406256a7c7ba8f7fc8bc47f8cde98360405161035591815260200190565b60405180910390a3505050565b61036a610704565b61037261075f565b565b61037c610704565b61037260006107bf565b61038e610704565b610372610830565b7ff0c57e16840df040f15088dc2f81fe391c3923bec73e23a9662efc9c229c6a008054600160401b810460ff16159067ffffffffffffffff166000811580156103dc5750825b905060008267ffffffffffffffff1660011480156103f95750303b155b905081158015610407575080155b156104255760405163f92ee8a960e01b815260040160405180910390fd5b845467ffffffffffffffff19166001178555831561044f57845460ff60401b1916600160401b1785555b610457610879565b61046086610889565b83156104a657845460ff60401b19168555604051600181527fc7f505b2f371ae2175ee4913f4499e1f2633a7b5936321eed1cdaeb6115181d29060200160405180910390a15b505050505050565b6104b6610704565b60008054905b818110156105095760008054806104d5576104d5610ade565b600082815260209020810160001990810180546001600160a01b03191690550190558061050181610af4565b9150506104bc565b5060005b825181101561057757600083828151811061052a5761052a610b1b565b60209081029190910181015182546001810184556000938452919092200180546001600160a01b0319166001600160a01b039092169190911790558061056f81610af4565b91505061050d565b505050565b6000805b6000548110156105dc57826001600160a01b0316600082815481106105a7576105a7610b1b565b6000918252602090912001546001600160a01b0316036105ca5750600192915050565b806105d481610af4565b915050610580565b50600092915050565b6060600080548060200260200160405190810160405280929190818152602001828054801561063d57602002820191906000526020600020905b81546001600160a01b0316815260019091019060200180831161061f575b5050505050905090565b61064f610704565b6001600160a01b03811661067957604051631e4fbdf760e01b815260006004820152602401610283565b610682816107bf565b50565b61068d6106d3565b806001600160a01b03167fe1fffcc4923d04b559f4d29a8bfc6cda04eb5b0d3c460751c2402c5c5cc9109c346040516106c891815260200190565b60405180910390a250565b600080516020610b328339815191525460ff16156103725760405163d93c066560e01b815260040160405180910390fd5b336107367f9016d09d72d40fdae2fd8ceac6b6234c7706214fd39c1cd1e609a0528c199300546001600160a01b031690565b6001600160a01b0316146103725760405163118cdaa760e01b8152336004820152602401610283565b61076761089a565b600080516020610b32833981519152805460ff191681557f5db9ee0a495bf2e6ff9c91a7834c1ba4fdd244a5e8aa4e537bd38aeae4b073aa335b6040516001600160a01b03909116815260200160405180910390a150565b7f9016d09d72d40fdae2fd8ceac6b6234c7706214fd39c1cd1e609a0528c19930080546001600160a01b031981166001600160a01b03848116918217845560405192169182907f8be0079c531659141344cd1fd0a4f28419497f9722a3daafe3b4186f6b6457e090600090a3505050565b6108386106d3565b600080516020610b32833981519152805460ff191660011781557f62e78cea01bee320cd4e420270b5ea74000d11b0c9f74754ebdbfc544b05a258336107a1565b6108816108ca565b610372610913565b6108916108ca565b61068281610934565b600080516020610b328339815191525460ff1661037257604051638dfc202b60e01b815260040160405180910390fd5b7ff0c57e16840df040f15088dc2f81fe391c3923bec73e23a9662efc9c229c6a0054600160401b900460ff1661037257604051631afcd79f60e31b815260040160405180910390fd5b61091b6108ca565b600080516020610b32833981519152805460ff19169055565b61064f6108ca565b80356001600160a01b038116811461095357600080fd5b919050565b60008060006060848603121561096d57600080fd5b6109768461093c565b92506109846020850161093c565b9150604084013590509250925092565b6000602082840312156109a657600080fd5b6109af8261093c565b9392505050565b634e487b7160e01b600052604160045260246000fd5b600060208083850312156109df57600080fd5b823567ffffffffffffffff808211156109f757600080fd5b818501915085601f830112610a0b57600080fd5b813581811115610a1d57610a1d6109b6565b8060051b604051601f19603f83011681018181108582111715610a4257610a426109b6565b604052918252848201925083810185019188831115610a6057600080fd5b938501935b82851015610a8557610a768561093c565b84529385019392850192610a65565b98975050505050505050565b6020808252825182820181905260009190848201906040850190845b81811015610ad25783516001600160a01b031683529284019291840191600101610aad565b50909695505050505050565b634e487b7160e01b600052603160045260246000fd5b600060018201610b1457634e487b7160e01b600052601160045260246000fd5b5060010190565b634e487b7160e01b600052603260045260246000fdfecd5ed15c6e187e77e9aee88184c21f4f2182ab5827cb3b7e07fbedcd63f03300a2646970667358221220ef47ee315e76b75415ac6a75ac1bc7fcdcfcb8dbcbf40576c6702da9ac944d4c64736f6c63430008140033",
  "linkReferences": {},
  "deployedLinkReferences": {}
}